:020000040800F2
:10000000F8070020F93700089136000893360008F9
:100010009536000897360008993600080000000061
:100020000000000000000000000000009B360008F7
:100030009D360008000000009F360008A136000829
:100040001D38000821380008253800082938000824
:100050002D380008313800083538000839380008D4
:100060003D38000841380008453800084938000884
:100070004D38000851380008553800085938000834
:100080005D380008613800086538000869380008E4
:100090006D38000871380008753800087938000894
:1000A000A53600087D38000881380008853800082A
:1000B000893800088D380008913800089538000804
:1000C000993800089D380008A1380008A5380008B4
:1000D000A9380008AD380008B7360008B138000864
:1000E000B5380008B9380008BD380008C138000824
:1000F000C5380008C9380008CD380008D1380008D4
:10010000D5380008D9380008DD380008E138000883
:10011000BD360008E5380008E9380008ED38000869
:10012000F1380008F5380008F9380008FD380008F3
:100130000139000805390008093900080D3900089F
:100140001139000815390008193900081D3900084F
:100150002139000825390008293900082D390008FF
:100160003139000835390008393900083D390008AF
:1001700041390008453900084939000800000000ED
:100180004D3900085139000838B5040001D101206B
:1001900032BD00F021F818B900F01AF800F069FC3F
:1001A000FFE702206870211D206800F094F901200B
:1001B0006870002032BD38B5040001D1012032BD85
:1001C00000F00AF818B900F003F800F02CFCE8E79A
:1001D000002129702046704704F13C05687870477B
:1001E00010B50446206801698A0715D5C1688A07D9
:1001F00012D56FF00201016101222277806910F0AF
:10020000030F204602D000F067FD03E000F065FD1B
:1002100000F094F800202077206801694A0715D57E
:10022000C1684A0712D56FF00401016102222277EA
:10023000806910F4407F204602D000F04DFD03E0BD
:1002400000F04BFD00F07AF800202077206801696B
:100250000A0715D5C1680A0712D56FF008010161B8
:1002600004222277C06910F0030F204602D000F06C
:1002700033FD03E000F031FD00F060F8002020774E
:1002800020680169CA0615D5C168CA0612D56FF083
:100290001001016108222277C06910F4407F2046D6
:1002A00002D000F019FD03E000F017FD00F046F861
:1002B0000020207720680169CA0708D5C168CA07ED
:1002C00005D56FF001010161204600F007FD2068AF
:1002D00001690A0608D5C1680A0605D56FF08001D4
:1002E0000161204600F0FBFC20680169CA0508D5C1
:1002F000C1680A0605D56FF480710161204600F0DF
:10030000EFFC206801694A0608D5C1684A0605D590
:100310006FF040010161204600F0E3FC20680169B4
:100320008A060AD5C1688A0607D56FF020010161E7
:100330002046BDE8104000F0D5BC10BD204600F0BE
:10034000D2BC70B500F090F801D1022070BD00F071
:1003500092F852B1042A1BD0082A2CD00C2A3DD086
:10036000102A4ED0142A60D073E03068294600F07D
:1003700008F93068816941F0080100F071F821F056
:100380000401816131688A69286902438A6160E0F9
:100390003068294600F034F93068816941F4006121
:1003A00000F05EF821F4806100F05AF82A6941EA11
:1003B000022181614DE03068294600F05AF9306829
:1003C000C16941F0080100F047F821F00401C16162
:1003D0003168CA6928690243CA613AE0306829462F
:1003E00000F07FF93068C16941F4006100F034F831
:1003F00021F4806100F030F82A6941EA0221C161EC
:1004000027E03068294600F093F93068416D41F0EB
:10041000080141653068416D21F004014165316892
:100420004A6D286902434A6513E03068294600F0A6
:10043000A9F93068416D41F4006141653068416D52
:1004400021F4806141653068416D2A6941EA0221E9
:10045000416500F015F870BDC1613068C169704731
:100460008161306881697047064606F13C040D469B
:1004700020780128704701202070022161707047A8
:1004800001206070002121700020704738B500F015
:100490000AF801D1022032BD00F017F82868C168BF
:1004A00021F0400105E0054605F13C0420780128D3
:1004B0007047C1602868C16821F48041C160012093
:1004C000607000212170002032BD012020700222C6
:1004D0006270284684E12DE9F043DFF87073D0F8AC
:1004E00000C0DFF86C33DFF86C43DFF86C53DFF8E3
:1004F0006C63DFF86CE3DFF86C83DFF86C93B84271
:1005000018BFB0F1804F07D0484518BF404503D011
:10051000704518BFB0420ED14A68B8422CF0700C3A
:1005200018BFB0F1804F42EA0C0C0CD048451CBFFC
:100530004045704507D0B04218BFA84203D0A04242
:1005400018BF984204D1CA682CF4407C42EA0C0CD3
:100550004A692CF0800C42EA0C020260B8428A68B8
:10056000C26218BFB0420A68826204D0A8421CBFAF
:10057000A042984201D10969016301224261BDE8AC
:10058000F0832DE9F041026ADFF8C082DFF8CCE2A7
:10059000B04FDFF8C4C2520852000262066A4468D3
:1005A0008569B24A0B6826F0020615408A68164330
:1005B0001D43404518BF7045A54B04D060451CBF86
:1005C000B84298420DD1CA6826F008061643404545
:1005D00018BF704526F0040605D0604518BFB84224
:1005E00001D0984205D14B698A6924F440741C43B8
:1005F000144344608561496841630662BDE8F08147
:10060000F0B5026A22F010020262056A436884694A
:10061000974A0E6814408A6844EA062425F02005AB
:1006200045EA0215894E8D4AB04218BF904208D162
:10063000CF6825F0800545EA0715B04225F0400552
:100640000AD090421CBF844A904205D0814EB042ED
:100650001CBF7F4A904206D14E698A6923F44063E9
:10066000164343EA860343608461496881630562F7
:10067000F0BDF0B5026A7D4B22F480720262066A18
:100680004468C5690A6826F400761D408B6846EA0E
:10069000032615436D4B714A984218BF904208D10A
:1006A000CF6826F4006646EA0726984226F480665C
:1006B0000AD090421CBF684A904205D0654B9842D0
:1006C0001CBF634A904206D14B698A6924F44054A6
:1006D000134344EA03144460C5614968C163066278
:1006E000F0BD70B5026A22F480520262036A446867
:1006F000C5695F4A00F06DF823F4005343EA023302
:10070000B0421CBF554A904207D0534EB0421FBF63
:10071000504A90424E4EB04204D14A6924F480447B
:1007200044EA82144460C56149680164036270BD93
:1007300070B5026A4F4B22F480320262046A456847
:10074000466D0A681E4016438B68404A24F4003404
:1007500044EA034490421CBF404B984207D03E4AB3
:1007600090421FBF3B4B9842394A904204D14A699C
:1007700025F4803545EA022545604665496881656E
:10078000046270BD70B5026A22F480120262036ACC
:100790004468456D384A00F01CF823F4001343EA1E
:1007A0000253B0421CBF2D4A904207D02A4EB0429D
:1007B0001FBF284A9042264EB04204D14A6924F411
:1007C000802444EA8224446045654968C165036227
:1007D00070BD0E68154045EA06258A681B4E7047B5
:1007E00038B50068254B85684C680A6825F07005A7
:1007F00025431D40154385604C68402C0CD0502C7F
:1008000018D0602C1BD0702C1ED10B698A68C96867
:1008100001B0BDE8304054E0026A036A5B085B0047
:1008200003628369096923F0F00343EA01138361DA
:10083000026231BD0A698968BDE8384020E00A6972
:100840008968BDE838402AE031BD0000002C014035
:100850000048014000440140004001400034014094
:10086000000C004000080040000400408CFFFEFF28
:10087000FF8CFFFE8FFFFEFFFF8FFFFEF8FFFEFFE6
:1008800010B5036A046A64086400046223F00A0372
:10089000846924F0F00444EA021484611BE010B57A
:1008A000036A23F0100303628369046A23F470432C
:1008B00043EA023324F0A004836144EA0114046291
:1008C00010BD10B5846824F47F442143114341EAEC
:1008D0000321816010BD1943016210BDDFF8B00330
:1008E00081B0816841F001018160816801F00101FE
:1008F00000910099026842F080520260006800F0A6
:1009000080500090009801B0704738B586B000F074
:10091000E3F82468DFF87C53AC421ED1DFF878039B
:10092000016841F400510160026802F40052009233
:100930000099026842F0040202600121006800F0A0
:10094000040000900B220098DFF8500301910292FE
:100950000021039101A900F0C7F907B030BD00687C
:10096000DFF83C13884205D1DFF83803026842F40F
:1009700000420260704710B586B000F0E4F82168CC
:10098000DFF82443DFF81003A1420FD1416941F49D
:1009900080514161416901F4805100F054F9E02136
:1009A00000F058F9052100F042F938E0DFF8FC22A8
:1009B000914236D1C16841F40041C160C16801F47F
:1009C000004105910599026842F004020260036843
:1009D00003F0040305930599026842F002020260E5
:1009E0004FF44061006800F0020005900222059873
:1009F000DFF8A80200F021F906210491039269466C
:100A000000F072F9022101910022202002920321BC
:100A100000900391062204926946DFF8940200F0E8
:100A200063F906B010BD80B50068A24A98499042AB
:100A300012D1886840F4006088600022886800F461
:100A40000060009000210098182000F069FABDE8CD
:100A50000240182000F081BA974A904208D10868F5
:100A600040F002000860096801F00201009100985E
:100A700001BD38B586B000F02FF824688F4DAC4228
:100A800028D18548416941F480314161416901F4CF
:100A9000803100910099026842F0020202604FF436
:100AA0008041006800F00200009002220098804817
:100AB000019102920021039104910E21059101A957
:100AC00000F012F900220021182000F029FA182065
:100AD00000F043FA07B030BD044601A8142100F02D
:100AE00067BA10B586B000F02EF82168714B7448D3
:100AF000694A994207D100F015F84FF4804200F09E
:100B00001BF8012208E06C4B994209D100F00AF869
:100B1000082200F011F802220492694600F0E4F87D
:100B200006B010BD116841F0100111600223126877
:100B300002F010020592704705990092019300227D
:100B400002920392704704466846142100F030BABE
:100B500010B586B0FFF7F7FF21685A4C4E48A14206
:100B600017D1C16841F40021C160C16801F40021BE
:100B700000F069F8032100F06DF8082100F057F843
:100B800000F0B2F800220021342000F0C9F934202E
:100B900027E04D4A91420DD1416941F480414161C4
:100BA000416901F4804100F04EF84FF4C06100F05B
:100BB0005DF838E0454A914216D1C16841F40031F0
:100BC000C160C16801F4003100F03DF80C2100F073
:100BD0004DF800F089F800220021262000F0A0F94D
:100BE000262000F0BAF920E0394A91421DD1C168AF
:100BF00041F48021C160C16801F48021059105990B
:100C0000026842F0080202604FF44071006800F090
:100C100008000590022205982E4800F00EF80721E2
:100C200004910392694600F05FF806B010BD04918C
:100C3000039269464FF09040704700910192002165
:100C400002910322704705910599026842F0010262
:100C500002607047006800F00100059002220598CC
:100C6000009101920021029103227047006800F078
:100C70000100059002220598009101920021029145
:100C8000032207210491039269464FF09040704778
:100C900058100240000104504C1002400008004867
:100CA000002800409010024000300140003C00400D
:100CB00000040048002C01400004004000400140B6
:100CC00000100048004C0040003801400044004043
:100CD00000480040000C004870477047704770475C
:100CE00070477047704770472DE9F8470026764AED
:100CF0000F230446884632E0744DAC4214BF0725EA
:100D000006258D4045EA0E054CF82750C74370492B
:100D10000D6800F0CFF8ED0348BF40EA0C0CC1F8B5
:100D200000C04D6800F0C6F8AD0348BF40EA0C0CA7
:100D3000C1F804C08D6800F0BDF8ED0248BF40EA7C
:100D40000C0CC1F808C0CD6807EA050CD8F804708F
:100D5000BD0248BF40EA0C0CC1F80CC0761CD8F8A4
:100D6000001031FA06F000F0A3800127B74017EA1F
:100D70000100F3D0D8F80450B100022D18BF122D95
:100D800012D1F50804EB850C01F01C05DCF820E01D
:100D9000D8F810A003FA05F92EEA090E0AFA05F5AB
:100DA00045EA0E05CCF820504FEA460C4FF0030EF2
:100DB000256898F804900EFA0CFE6FEA0E0E09F002
:100DC00003090EEA050509FA0CF949EA050525604B
:100DD000FF43D8F80450012D18BF022D03D0112D68
:100DE00018BF122D14D1A568D8F80C900EEA05058D
:100DF00009FA0CF949EA0505A5606568D8F8049078
:100E0000C9F300193D4009FA06F949EA050565608C
:100E1000D8F8045005F00309B9F1030F08D1D4F84C
:100E20002C90C5F3C00507EA0907B5402F43E762D8
:100E3000E7680EEA0705D8F8087007FA0CF73D4393
:100E4000E560D8F80450EF0088D51568DFF884C055
:100E500045F00105156001F00C01176807F0010766
:100E6000009703FA01FE009FB7085CF8275025EAB7
:100E70000E0EB4F1904F08BF002518D0164DAC42AD
:100E800008BF012513D0154DAC4208BF02250ED076
:100E9000134DAC4208BF032509D0124DAC4208BF28
:100EA000042504D0104DAC427FF426AF052528E779
:100EB000BDE8F18707EA050CD8F8045070470AB17D
:100EC00081617047816270476010024000180048DD
:100ED00000040140080001400004004800080048E8
:100EE000000C0048001000480014004809010200EE
:100EF00006D5294A00F00F00104400F8041C704782
:100F0000264B19547047264B19684FF6FF02000212
:100F1000114000F4E060084322490843186070471C
:100F200038B51F4B1C68C4F30223C3F10704052C1A
:100F300028BF04241D1D072D34BF0023DB1E0125FF
:100F400005FA04F4641E2140994005FA03F35B1E80
:100F50001A401143BDE83440C8E7012200F01F01E8
:100F6000114BFFE78A40400943F82020704710B535
:100F7000401EB0F1807F01D3012010BD0B4C60609A
:100F80000F214FF0FF30FFF7B1FF0021A1600720D4
:100F90002060002010BD000018ED00E000E400E03B
:100FA0000CED00E00000FA0500E100E010E000E0D8
:100FB000002200F01DB830B4002513E050F8042BD7
:100FC000D30744BFA9F101039A18091F042942F865
:100FD000045BFAD213468C0744BF15809B1CC907DB
:100FE00048BF1D7050F8041B0029E7D130BC704782
:100FF00000B500BF130096469446103928BFA0E8FC
:101000000C50FAD85FEA417C28BF0CC048BF40F8BA
:10101000042BC90728BF20F8022B48BF00F8012B7A
:1010200000BD00002DE9FC47040019D0DFF88476EC
:10103000DFF88C56B868FE6800F00C082078C1060E
:1010400006F0030651D5B8F1000F04D0B8F10C0F2B
:1010500008BF012E2BD13868810703D5A06900286D
:1010600000F02C81396808074EBF396869680909A2
:10107000206A01F0F001814206D200F0DFFA002878
:1010800008D100F0BDF907E000F0BAF9206A00F0DD
:10109000D5FA002840F0128100F071FABA6800F029
:1010A0003FFA00F023FB010000F0F780A6E1A06901
:1010B00090B1396841F00101396000F02FFB8146A1
:1010C0003868810700F1E78000F028FBA0EB0900F9
:1010D0000328F5D3032091E13868400840003860C8
:1010E00000F01CFB81463868810740F1D68000F093
:1010F00015FBA0EB09000328F5D3EBE76068B0F51A
:10110000803F04D1386840F48030386011E0B0F599
:10111000A02F386806D140F480203860396841F447
:10112000803105E020F480303860396821F4802176
:101130003960606868B100F0F1FA8146386881036F
:1011400000F1BE8000F0EAFAA0EB09006528F5D3B3
:10115000C0E700F0E3FA81463868810340F1B080CF
:1011600000F0DCFAA0EB09006528F5D3B2E700F047
:10117000D5FA801B0328C0F0CA80ABE7E06880B1D5
:10118000396841F48071396000F0C8FA0646386861
:10119000410500F1A78000F0C1FA801B0328F6D3B7
:1011A00098E7386820F48070386000F0B7FA064697
:1011B0003868410540F19D8000F0B0FA801B03289B
:1011C000F6D387E740084000686000F0A7FA0646BB
:1011D0006868810740F19F8000F0A0FA801B032817
:1011E000F6D377E70528286806D140F00400286088
:1011F000296841F0010105E04008400028602968A5
:1012000021F004012960A06841F2893968B100F039
:1012100085FA82462868810700F1B18000F07EFAE5
:10122000A0EB0A004845F5D354E700F077FA824670
:101230002868810740F1A38000F070FAA0EB0A0053
:101240004845F5D346E700F069FA401B0328C0F093
:10125000AA803FE700F062FA001B0328C0F0C980B3
:1012600038E7396811F0205F03D1F8688008800002
:10127000F860F968DFF84C040140F96000F04EFABC
:1012800004463868810140F1B88000F047FA001B3D
:101290000328F6D31EE700F0B3F82078C1070FD576
:1012A000B8F1080F05D0B8F10C0F08BF032E7FF47A
:1012B00025AF3868810303D5606808B901209DE037
:1012C0002078810715D5B8F1040F05D0B8F10C0FBF
:1012D00008BF022E7FF452AF3868410502D5E0689E
:1012E0000028EBD07868216920F0F85040EA0160CE
:1012F0007860207801070ED56069002868683FF49F
:1013000061AF40F00100686000F008FA06466868C6
:1013100081077FF52CAF2078410735D5B86D0026C1
:10132000C10009D4B86D40F08050B8650126B86D91
:1013300000F0805000900098DFF88C93D9F80000FE
:10134000C10513D4D9F8000040F48070C9F800003A
:1013500000F0E4F98246D9F80000C10506D400F097
:10136000DDF9A0EB0A000328F5D3B3E6A068012855
:101370007FF438AF286840F00100286043E71EB1D1
:10138000B86D20F08050B865A06AB0B3B8F10C0F0A
:1013900094D00228386820F0807038607FF461AF04
:1013A00000F0BCF90546386881013FF54CAF206B71
:1013B000616B401E090241EA0011A06BE26B00095B
:1013C00041EA4041E06A52080143206C521E400845
:1013D00041EA4251401E41EA4061F960386840F0FC
:1013E00080703860F96841F08071F96000F096F91A
:1013F0000446386881017FF52DAF0020BDE8F687EF
:10140000386840F0080038603968206A21F0F0013F
:10141000014339607968E06921F47F4141EA0021A4
:10142000796070472DE9F0410400884676D0DFF8F6
:101430009C62306800F00700404509D23168C90855
:1014400048EAC1013160306800F00700404565D1CD
:101450002078DFF86052C10748D56068032802D1C0
:1014600029688A0108E0022802D129688A0303E07A
:101470000028296802D18A0702D44FE04A054DD5D9
:10148000A968890840EA8100A86000F047F907468A
:10149000A868616800F00C00B0EB810F26D000F066
:1014A0003DF9C01B41F289318842F1D303201BE092
:1014B0002078410705D5AA68E06822F4E06202437B
:1014C000AA602178080706D5A968206921F460512F
:1014D00041EAC001A96000F052F8AA6800F020F8C3
:1014E000BDE8F04100F002B9BDE8F0812078810745
:1014F00005D5AA68A06822F0F0020243AA6031680C
:1015000001F007018845D3D23068C00848EAC0001E
:101510003060316801F007014145C9D00120E3E79F
:101520006B49C2F30312895C634A01F01F01C84092
:1015300010600020704770B5664E86B0706C40F049
:10154000010070641546706C00F0010000900222EA
:101550000C460098029204924FF48071019100228F
:101560000392059201A94FF09040FFF7BDFB31684F
:1015700021F0EE410C432C43346006B070BD10B531
:101580004C4A9068D4680023002110F00C0004F04D
:10159000030403D00C2812D1012C1AD113681C07A4
:1015A00004D4464B1C68C4F3032302E01368C3F35E
:1015B0000313494C54F8233048B9194628E004284D
:1015C00008BF464924D0082822D1454920E00C28EC
:1015D0001ED1D168D068C0F30210401C01F0030195
:1015E000022902D0032902D005E03C4900E03C4931
:1015F000B1FBF0F101E0B3FBF0F1D068C0F30620DD
:101600004143D068C0F34160401C4000B1FBF0F1A1
:10161000084610BD28482F4A006813683149C3F3B3
:10162000022206E024482B4A006813682D49C3F3C0
:10163000C222895C01F01F01C84070477CB52A4E68
:10164000054630680024C10002D500F06DF80EE0B8
:10165000306840F080503060316801F08051009176
:10166000009800F061F8316821F080513160B0F5E8
:10167000007F04D1802D0CD9A12D09D304E0802D49
:1016800088BF032405D801D1022402E0702D00D1C7
:1016900001240E480168C90844EAC10101600068DC
:1016A00000F00700A04201D0012076BD002076BDE9
:1016B00000000000001002400000002094100240D2
:1016C00090100240FFFFEEFE00700040002002403C
:1016D0008036000808100240E43600080024F400B8
:1016E00000127A00143800085810024038B50A4930
:1016F0000A6804464FF47A70B2FBF0F0FFF737FC4B
:10170000002508B1012505E0002221464FF0FF30F9
:10171000FFF706FC284632BD0000002001480068A3
:10172000704700BFF4030020DFF87800006800F481
:10173000C060704710B5DFF86C10B0F5007F086826
:1017400000F4C06015D1B0F5007F1BD00868DFF849
:101750005820DFF8584020F4C06040F4007000F0DA
:1017600018F84A6953050FD5002818BF401EF8D154
:101770000AE0B0F5806F05D0086820F4C06040F43E
:1017800080600860002010BD48694105FAD503203B
:1017900010BD0860322013684343B3FBF4F0401CD3
:1017A00070470000007000400000002040420F0021
:1017B0002DE9F0418AB000F023FB00F050F900F071
:1017C00004FA68461821FFF7F3FBDFF8A845DFF8B5
:1017D000A80520600021042060616160E160216152
:1017E000218304F1300500200022012184F820002B
:1017F000A062E06228706860A260E1612A722046FF
:1018000000F030FBDFF874150091062201920021F0
:1018100002917F22039204210491002205926946DD
:10182000204600F001FCDFF8580568630021002025
:10183000E86368644FF48276082028654FF4E06717
:1018400007202866A9640820A8664FF40078696517
:10185000A965E9656966AE632F64C5F84C8004F13B
:10186000640000F0B7FD04F1C805DFF81805286032
:1018700000210720E862A960082068632961696186
:10188000E96129626962A96229636E60EF60C5F847
:101890001880284600F09EFD00F04DF900F0D1F8C8
:1018A00003A81C21FFF784FB04F54576DFF8D80474
:1018B000F06100213162002070624FF4FA61F06241
:1018C0007063B16204F54C773846FEF774FC00F0A3
:1018D000BFF8602103914FF49672002104920591A4
:1018E0000022079203A93846FEF72BFD3846FFF782
:1018F000F8F803A800F01CF900F0A3F8DFF88C74E6
:1019000031667166F1663167F7654FF6FF70B06654
:101910008021716704F55C773846FEF735FC0721B6
:1019200003915022002105910791049203A93846A2
:10193000FEF7ACFD00F08CF8DFF8540468664FF455
:101940001651A96600200C21E86628676867A96718
:10195000E86704F5A47528606860A8604FF4E13773
:1019600004F5967000F08EFDDFF82804E8650C2180
:1019700000202F666866A866E86629676867A8671A
:10198000E86704F5E475286004F5D27000F07AFD8C
:10199000DFF80404686500210C20A866E965296663
:1019A0006966E96629676967A967AF6504F5077025
:1019B00000F068FD04F52575DFF8E00328600021DC
:1019C0000C206861A960E9602961A961E961296267
:1019D00069626F60284600F055FD01A800F0A8F884
:1019E0000FF21840EE4A01680091AA670020E867EC
:1019F0007F21FF22B060F060306170613160726001
:101A000004F54374204601F05BF80020ADF80400B3
:101A10008DF8060004900590012201A9204601F0EE
:101A2000A6F8012100228DF800108DF801108DF824
:101A300002108DF8032069460122204601F00EF9BC
:101A4000FEE7684600210022002380E80E00704770
:101A50000021009102913846694601F0B3B910B5F2
:101A6000B8B0D04C05A82146442201F01BFA00F082
:101A70005EF816A804F14401882201F013FA01F07F
:101A80001DFAC9480168002221F0180101600C927A
:101A9000012107910A910B91022260210D910F9271
:101AA0000121109111911C201421129105900722FF
:101AB000022113921491159105A8FFF7B3FA03219F
:101AC00001910F2000210090802203910491029245
:101AD00001216846FFF7A6FC002224922592269257
:101AE00027924FF0805234920122179218921022BE
:101AF000AE49169119924FF40071022237911B9250
:101B00001C9207214FF080721A911D9216A801F0C5
:101B1000DDF900224FF080710020FFF70CFD4FF43B
:101B20000070FFF707FE01F070FB38B010BD68468B
:101B30001421FFF73DBA30B595B06A460023002462
:101B4000002582E838000EA81C21FFF731FA03A80F
:101B50002C21FFF72DFA964C964820601022C820C1
:101B6000E060A260656025616561A5612046FEF7C1
:101B700022FB0095019502956946204601F022F965
:101B8000602164220E910F92109512951395149571
:101B90000C220EA92046FEF7D4FB4FF40051089109
:101BA0004FF000720B9203950495059506950795E5
:101BB00009950A950C950D9503A9204601F02BF97E
:101BC0002046FEF78EFF15B030BD2DE9F84F86B0E8
:101BD000FFF7ADFF7848DFF8E4910468DFF8E081B3
:101BE000DFF8E0A144F01004046041F6100B016836
:101BF000754C01F01001059141F20105059902684B
:101C000042F00402026041F28117036803F004030A
:101C1000059347F273060599026842F0800202605C
:101C2000036803F0800305930599026842F00102FE
:101C30000260036803F0010305930599026842F00E
:101C400002020260036803F002030593059902682B
:101C500042F0080202600022006800F008000590CF
:101C6000594605984FF09040FFF729F900221021BE
:101C70002046FFF724F9002229464846FFF71FF9BE
:101C8000002239464046FFF71AF9002231465046F5
:101C9000FFF715F942F26040002100900191029196
:101CA00040466946FFF720F84FF43B700021009052
:101CB0000191029120466946FFF716F800F086F878
:101CC000CDF800B000F08FF8102100910122002122
:101CD00002910391019269462046FFF705F800F052
:101CE00075F800F085F8012001900022009702921B
:101CF000039269464046FEF7F7FF12210191012247
:101D000002924FF440600321009003910422049258
:101D100000F06FF8009600F059F869465046FEF75B
:101D2000E3FF0221019100224FF480750292039299
:101D30000492009500F057F80221019100220292CE
:101D40004FF4805000F048F82046FEF7CDFF022106
:101D5000019100220292042000F03EF85046FEF766
:101D6000C3FF00210191029100F042F807B0BDE8E5
:101D7000F08F000004000020000104500200300435
:101D800000300140003C00400004004000400140A1
:101D9000004C004000380140004400400048004032
:101DA0000028004068350008901002400F400200F3
:101DB000B4030020002C01404C10024000040048F5
:101DC00000100048000C0048000800480120019065
:101DD000002202920392704703210090039108228F
:101DE00004926946704769464FF09040FEF77CBF09
:101DF000009569464846FEF777BF000000000000E6
:101E0000032010B5FFF77FF80020FFF76FFC0024D8
:101E1000002814BF0124FEF761FD204610BD00001C
:101E2000603000EB8100006800F0F84070476030DF
:101E300000EB8100016821F000410A430260704715
:101E4000CB0D10B5143003F004031818090D01F080
:101E50001F01036807248C40A34302FA01F11943D0
:101E6000016010BDF8B50025044600950CB90120AD
:101E7000F2BD04F15006706820B92046FEF745FD1A
:101E8000B560357021688868800004D58A68DFF8FD
:101E9000700102408A6021688868C00015D48A6891
:101EA000DFF86001024042F080528A60DFF858118A
:101EB000DFF858210868B0FBF2F2009202E00098C7
:101EC000401E009000980028F9D120688168C90060
:101ED00008D4726842F0100272600125B16841F0C6
:101EE0000101B16081687268D30600D4490700F12E
:101EF0007F80726822F4807242F002027260806811
:101F0000C00714D4DFF80811DFF808210868116849
:101F1000DFF804311A6808431043C00707D4DFF81C
:101F2000FC100A68606822F47C1202430A6004F123
:101F30003002607E5368E16894F8207043EA4033D1
:101F4000A0680B430343012F43EA074303D1606AB0
:101F5000401E43EA4043A06A20B1E16A00F4707079
:101F6000084303432168DFF8B800CF6807403B43CC
:101F7000CB6021688B6888685B0724D4000722D473
:101F8000CB68DFF8A000277E0340107843EA873350
:101F900043EA4003CB60107A01280FD123681F6900
:101FA000D16810696FF38A070F435169074390693D
:101FB0000F43074347F001071F6104E020680169F0
:101FC000490849000161206901282068016B05D199
:101FD000E2690909521E42EA011101E009090901F9
:101FE0000163706820F0020040F00100706004E0BE
:101FF000706840F01000706001252846F2BD0000B6
:10200000C0FFFF5FC0FFFF7F00000020400D030006
:10201000080004500801045008020450080304504A
:1020200007C0F0FFFDBFFFFFF8B50646002406F12C
:1020300050050F4600942978012901D10220F2BDF4
:102040000120287031688868400700F17081786845
:10205000062812D2801E03280DD8DFE800F0020403
:1020600006080C2008E0122103E0182004E04FF4D9
:102070008071796001E0062078607968326838689C
:102080008B09303203F00C039A1801F01F01D2F8CB
:1020900000C01F238B40C0F384602CEA030300FAC6
:1020A00001F119431160306882688168520720D4B9
:1020B00009071ED4BA683968FFF7C2FE3068C168E4
:1020C0003A69042A16D0603000EB820C3B68DCF8D9
:1020D00000209B48024003F0F8431343C9087A6983
:1020E000480000F006008240134343F00043CCF860
:1020F00000307AE00021FFF793FE4003306821466C
:1021000004D1FFF78DFEC0F3846003E0FFF788FE83
:1021100000F018F939684A030FBFC1F3846191FADE
:10212000A1F1B1FA81F1C9B2884204D1306800222C
:102130000021FFF77CFE00F013F9400304D100F00A
:102140000FF9C0F3846003E000F00AF900F0FAF838
:1021500039684A030FBFC1F3846191FAA1F1B1FA62
:1021600081F1C9B2884204D1306800220121FFF711
:102170005EFE00F0F1F8400304D100F0EDF8C0F38A
:10218000846003E000F0E8F800F0DCF839684A0306
:102190000FBFC1F3846191FAA1F1B1FA81F1C9B223
:1021A000884204D1306800220221FFF740FE00F08F
:1021B000CFF8400304D100F0CBF8C0F3846003E013
:1021C00000F0C6F800F0BEF839684A030FBFC1F34B
:1021D000846191FAA1F1B1FA81F1C9B2884204D1C6
:1021E000306800220321FFF722FE31688868C007AB
:1021F00048D4FA683B68D1F8B0C0DFF8B0E102F02B
:102200001802C3F312002EFA02F22CEA0000134067
:102210000343C1F8B030F868DFF89411884231D137
:10222000386841030FBFC0F3846290FAA0F1B1FA9D
:1022300081F2D2B2521C012102F01F020A2A0DD2F1
:1022400000F092F89B0602F01F02401C03F0F843D6
:10225000914000F01F0000F0A0F80FE000F084F8BB
:10226000401C9B0602F01F0200F01F0003F0F84321
:1022700091400A3800F091F841F00071BA68306876
:10228000FFF7DEFD3B68DFF82C01034254D0DFF896
:102290001801DFF824C10168DFF82071DFF8202180
:1022A000634501F0E0711FD10B0245D433689342BE
:1022B00018BFBB4240D10268DFF8083122F0E0725B
:1022C000114341F4000101600C20DFF8FC100A68A2
:1022D000B2FBF3F343430093009800281EBF00981D
:1022E000401E0090F8D127E0DFF8E0E073450DD103
:1022F000CB0121D43368934218BFBB421CD1026882
:1023000022F0E072114341F080710EE0DFF8C070FE
:10231000BB4211D14B020FD4366896420CD10268F1
:1023200022F0E072114341F48001016004E068682A
:1023300040F0200068600124002028702046F2BD93
:1023400000F0FF0390FAA0F0B0FA80F0C0B270473E
:1023500030680321FFF764BD30680221FFF760BDDC
:1023600030680121FFF75CBD420304D1C0F38462F1
:10237000134610460EE090FAA0F2B2FA82F390FAF9
:10238000A0F290FAA0F0B2FA82F2B0FA80F0DBB2DA
:10239000D2B2C0B25B1C521C7047194300EB400024
:1023A00041EA00517047000008030450FFFF070096
:1023B00000007F4000000880000052C70002045067
:1023C00000000450400D030000000020000084CBFA
:1023D0000100008070B5040001D1012070BD002013
:1023E000A06204F15C05687820B9002129702046BC
:1023F000FEF7C1FA0220687000F03DF8E168B1F51F
:10240000E06F04D90022B1F5706F03D104E04FF4FE
:10241000805201D00020A062206B30B9B1F5E06F8E
:1024200087BF02202063012121636368A0682169BE
:102430002668034360690B43A169034301F40071FB
:10244000E0690B43216A0343A06A0B4303433360F3
:10245000A369606A616B1B0C03F004030343E0682B
:102460000B4303431A4323685A600021696001202B
:102470006870002070BD2068016821F04001016093
:102480007047000038B5040009D004F17005697880
:1024900009B900F01EF800F021F8012801D101204F
:1024A00032BD606A08B100F02AF800F00AF821F0A5
:1024B0002A01FFE7816000F01BF8BDE8324000F020
:1024C00088BA2068416821F49041416020688168A1
:1024D0007047002028702046FEF73ABB242169701F
:1024E00020680268520852000260204600F0B2B82C
:1024F0002068016841F001010160204670472046D4
:1025000000F004BA70B504462568E9692A68AB682A
:1025100011F00F000AD188066DD596066BD5216E95
:10252000002967D02046BDE870400847D80702D48C
:1025300012F4907F5FD0C80707D5D60505D50120D6
:102540002862656F45F001056567880708D5DD07D6
:1025500006D5266802203062606F40F00400606794
:10256000480708D5DD0706D5266804203062606F6D
:1025700040F00200606708070AD5950601D4D80725
:1025800006D5256808232B62606F40F0080060675D
:10259000606F002857D0880605D5910603D5216EB7
:1025A00009B120468847606F010703D4206881681D
:1025B00048061AD5204600F06BFA206881684A0662
:1025C0000ED500F041F858B10FF2E5418163E06E9D
:1025D00000F01CFFB8B3E06E816BBDE870400847A7
:1025E0002046BDE8704000F036BF204600F033FFC3
:1025F0000020606770BDC80209D55B0207D54FF4A3
:10260000801028622046BDE8704000F025BF080613
:1026100007D5130605D5616EA9B12046BDE8704007
:10262000084748060FD551060DD5286820F0400010
:102630002860202184F87110002060662046BDE8E3
:10264000704000F00ABF70BD816821F040018160D8
:10265000E06E70472DE9F04104469D482268DFF89E
:1026600074E21368A168034020690B436169034366
:10267000E0690B430343136010275168E06821F4BD
:1026800040510143516000260025A36992498A42C6
:102690001CBF206A0343906820F4306003439360BA
:1026A00072458E488E4B21D11B6803F00303032B28
:1026B0004CD8DFE803F0023A294A0127E169B1F575
:1026C000004F4FF6F07840F0D48067B1012F00F052
:1026D000AA80022F00F0AA80042F00F0AC80082FFF
:1026E00000F0B280B8E0FEF795FFA6E0DFF8F4C195
:1026F00062450BD11B6813F00C035FD0042B14D080
:10270000082B01D00C2B0EE002271FE0DFF8D8C108
:1027100062450CD11B6813F030034FD0102B04D04E
:10272000202BF1D0302B10D010E004270EE0DFF882
:10273000BCC1624522D11B6813F0C0033ED0402BC0
:10274000F3D0802BE0D0C02B00D108278A42B5D12E
:10275000390006D0022F08D0042F31D0082F32D0F4
:10276000AFE0FEF757FF00285CD0626802EB420141
:10277000884202D31303834228D2A2E0DFF870C15B
:1027800062450CD11B6813F4407317D0B3F5807FFA
:10279000CBD0B3F5007FB7D0B3F5407FC3E78A4213
:1027A000D4D11B6813F4406308D0B3F5806FBCD05C
:1027B000B3F5006FA8D0B3F5406FB4E70027C5E7C5
:1027C000FEF7DDFECFE74FF40040CEE737B1022F32
:1027D0000AD0042F0ED0082F16D01BE0FEF71AFFE8
:1027E00000F08EF879410AE0424911EB520045EBC6
:1027F000050104E0FEF7C3FE00F082F86941002302
:1028000000F02CFE064606E0530803F50003B3FB78
:10281000F2F600E00125A6F540703749884250D213
:102820002268D6604EE0FEF7FDFE06E060683349A0
:1028300001EB50010CE0FEF7A2FE61684A0802EBD2
:102840004002B2FBF1F605E06068410801F5803115
:10285000B1FBF0F6B6B200E00125A6F1100040454C
:102860002FD208EA0601C6F3420001432068C16086
:1028700028E047B1012F09D0022F0CD0042F08D037
:10288000082F0ED015E0FEF7C5FE04E0FEF7CAFEE5
:1028900001E0FEF774FE616800EB5100B0FBF1F659
:1028A00005E06068410801F50041B1FBF0F6B6B201
:1028B00000E00125A6F11000404502D22168CE605B
:1028C00000E001250020206660662846BDE8F08112
:1028D000F369FFEF00380140008000400024F4005D
:1028E000881002400044004000480040004C004076
:1028F00000500040000024F400FD0F000048E801F3
:102900006268010E560816EB0020704790F82410FC
:10291000CA0706D502685368816A23F400330B4363
:10292000536090F824108A0706D502685368C16A7C
:1029300023F480330B43536090F824104A0706D5E4
:1029400002685368016B23F480230B43536090F8B3
:1029500024100A0706D502685368416B23F400432C
:102960000B43536090F82410CA0606D5026893689A
:10297000816B23F480530B43936090F824108A06F4
:1029800006D502689368C16B23F400530B43936030
:1029900090F824104A0610D502685368016C23F49D
:1029A00080130B435360036CB3F5801F05D153684C
:1029B000416C23F4C0030B43536090F824100A06C3
:1029C00006D501684A68806C22F4002202434A60FE
:1029D0007047F8B5044604F17005002068606FF098
:1029E0007E47FEF79BFE0646206801680A0708D569
:1029F0000097334600224FF40011204600F016F8ED
:102A000060B9206801684A070AD50097334600225A
:102A10004FF48001204600F009F808B10320F2BD10
:102A200020206870A87000202870F2BD2DE9F041C8
:102A3000069C05460E4690461F462868C1693140EF
:102A4000B1420CBF01200020404518D114F1010F04
:102A5000F3D024B1FEF762FEC01B8442EDD2286899
:102A6000016821F4D071016000F00CF805F17000EC
:102A700020214170817000210170032000E00020BE
:102A8000BDE8F08128688168490849008160704785
:102A900001680A6822F490720A6001688A68520824
:102AA00052008A60202180F872100022026670476E
:102AB000806A00F1520100220A810A8000F0CBBC3A
:102AC000F8B504460125002C48D094F821000025D3
:102AD00020B984F820502046FDF741FF00F01AF994
:102AE000CA2022685062532120684162204600F0CB
:102AF00042F9FF26F0B92168DFF83C028A680240FB
:102B00008A602268936867682169A0690F43074358
:102B10003B4393602068E168016120680169A26815
:102B200041EA0241016100F0E9F806D4204600F0D4
:102B300009F910B100F014F810E02068C16C8908A0
:102B40008900C1642168CA6CE369606903431A4360
:102B5000CA64012021684E6284F821002846F2BD33
:102B600020684662042184F82110012570472DE970
:102B7000F04105460F4695F820000128144608BF8D
:102B8000022063D0012085F82000022185F8211061
:102B9000CA202A685062532128684162284600F002
:102BA000EAF8FF26002845D128688068002C15D156
:102BB00041065CBF0020F870387800F0F7F88046D6
:102BC000787800F0F3F80402B87800F0EFF844EAFF
:102BD00008440443F87844EA80540DE041065CBFA1
:102BE0000020F8707C783978B878240244EA0144EF
:102BF000F978044344EA81542968DFF8400104402D
:102C00000C602868826822F48022826029688A68C1
:102C1000FB68386903431A438A602868C16821F059
:102C20008001C1602868816888060AD4284600F0BF
:102C300089F830B128684662042100F009F80120C3
:102C400004E028684662012100F002F8BDE8F08146
:102C500085F82110002085F820007047F8B504465B
:102C60000E4694F82000012801D10220F2BD00F0A8
:102C70004EF8002A757834D1E80603D505F0EF0543
:102C80000A357570F07800F091F80746707800F01A
:102C90008DF80502B07800F089F845EA074505434C
:102CA000307845EA40352068CA21416253222168C4
:102CB0004A62204600F05FF8FF2658B92168DFF825
:102CC000800005404D6000F019F814D4204600F053
:102CD00039F880B120684662042100F022F8012012
:102CE000F2BDF07831782D0245EA0045B078054311
:102CF00045EA4135D7E72068466218E02068C16898
:102D000021F08001C1602068816888067047012039
:102D100084F82000022184F8211070472068C0F850
:102D2000248084F82110002084F8200070470121BD
:102D3000FFF7F7FFF2BD0000BFFF8FFF7F7F7F002F
:102D40003FFFFF0038B504462068C16821F0A001AC
:102D5000C160FEF7E3FC05462068C168880608D418
:102D6000FEF7DCFC401B40F2E9318842F4D303203B
:102D700032BD002032BD38B504462068C1684A061D
:102D800012D44FF0FF31C160FEF7C8FC0546206841
:102D9000C168480608D4FEF7C1FC401B40F2E93187
:102DA0008842F4D3032032BD002032BD002101E06F
:102DB000491C0A38C2B20A2AFAD240EA0110C0B24B
:102DC00070470000F0B500F13C031A78012A01D1E8
:102DD0000220F0BD01221A7002245C702F4A0468A0
:102DE0006568A66894421CBF2D4FBC4203D14A6857
:102DF00025F47005154325F070058A6809680D43B0
:102E0000656026F0800600681643866001215970CF
:102E100000201870F0BD30B590F83C20012A01D197
:102E2000022030BD012280F83C20CC688B684A68C3
:102E300024F440741C4324F4806414430B680A692E
:102E400024F400641C4324F4805414434B698A6ABC
:102E500024F400541C4324F4804414438B690F4A27
:102E600024F4702444EA0344036893421CBF0C4DCD
:102E7000AB420CD14A6A24F4700444EA0254CA6991
:102E8000096A24F08074144324F000740C435C64D9
:102E9000002280F83C20002030BD0000002C0140C2
:102EA000003401404AB1000011F8013B521E00F805
:102EB000013B1CBF11F8013BF8E77047024801686D
:102EC00041F4807101607047007000402DE9FC47BB
:102ED000054600242868DFF808640105A14621D5CD
:102EE000686E70B1B0F5800F17D0B0F5000F03D049
:102EF000B0F5400F09D013E0326842F480323260FE
:102F000004E0002100F07FF9044654B9F16F686EC7
:102F100021F440010143F16704E000F06EF9F3E7AA
:102F20000124A1462868C10421D5A86EA8B1B0F13A
:102F3000807F17D0B0F1007F03D0B0F1407F04D084
:102F400013E0316841F4803131607CB9F16FA86ED3
:102F500021F040710143F16709E0002100F053F9CD
:102F60000446F2E700F049F9FAE70124A14628688F
:102F700081032BD5F06CC1004FF000080AD4F06C2F
:102F800040F08050F0644FF00108F06C00F0805089
:102F900000900098DFF85C74386840F48070386006
:102FA000FEF7BCFB82463868C10500F1F780FEF7EA
:102FB000B5FBA0EB0A000328F5D30324A146B8F122
:102FC000000F03D0F06C20F08050F0642878C10727
:102FD00005D5F26FA86B920840EA8202F267297861
:102FE000880705D5F16FE86B21F00C010143F1670B
:102FF0002978480705D5F16F286C21F0300101438D
:10300000F1672978080705D5F16F686C21F0C001D8
:103010000143F1672978C80605D5F16FA86C21F442
:1030200040710143F1672978880605D5F16FE86C96
:1030300021F440610143F1672968880505D5F16FE6
:10304000E86D21F440210143F1672968480505D561
:10305000F16F286E21F440110143F1672978480689
:1030600005D5F16F286D21F440510143F1672978AE
:10307000080605D5F16F686D21F440410143F16701
:103080002968C80505D5F16FA86D21F440310143C9
:10309000F167296888041FD5F16FE86E21F040615F
:1030A0000143F167E86EB0F1006F0DD100F0A0F8B8
:1030B00012E0FEF733FB001B41F289318842C0F079
:1030C0008B804FF003097AE7B0F1806F04D100F0F4
:1030D00099F8010018BF81462868010314D5F26FE2
:1030E000286F22F040620243F267286FB0F1006F50
:1030F00002D100F07DF807E0B0F1806F04D100F05C
:1031000081F8010018BF81462868410314D5F26F89
:10311000686F22F040620243F267686FB0F1006F9F
:1031200002D100F065F807E0B0F1806F04D100F043
:1031300069F8010018BF81462868410418D5F26F6C
:10314000A86F22F040520243F267A86FB0F1805F8F
:1031500003D1022100F057F807E0B0F1005F07D17A
:10316000022105F1200000F0BDF8010018BF8146E2
:103170002868010405D5F26FE86F22F0804202430F
:10318000F2672968C80306D5F16FD5F8800021F0F1
:1031900000410143F1674846BDE8F687002C7FF403
:1031A0000DAFDFF85472386810F440701CBFD5F8CA
:1031B000841088420BD03868396841F48031396016
:1031C00020F440703A6822F480323A603860C007D8
:1031D00006D5FEF7A3FA0446386881077FF569AF84
:1031E0003A68D5F8840022F4407202433A60E6E679
:1031F000306840F4801030607047002105F12000F5
:1032000000F070B80121281D05E07C48016841F0FC
:103210000401016070472DE9F04100F0E2F809D0A7
:10322000F16801F0030181422BD150B300F0BCF8EA
:103230000CD026E0012804D023D303281BD016D3BA
:103240001FE0326891071CD500F0BEF8306820F00E
:10325000806000F0C3F880463068010133D5FEF786
:103260005DFAA0EB08000328F6D3032536E03168A9
:103270004A05E9D405E031688A03E5D431684A0398
:10328000E2D401252AE0012C326909D13B695C486E
:1032900002405B0842EA01215B1E41EA435102E021
:1032A0007B6900F088F83161306840F0806000F0A0
:1032B00095F80446306801010CD4FEF72FFA001B84
:1032C0000328F7D3D1E7B968002CDCD1326900F0CC
:1032D00062F8E8E73169B8690143316158E00000FC
:1032E0000C1002402DE9F04100F07BF809D0F168A4
:1032F00001F0030181422BD150B300F055F80CD0FE
:1033000026E0012804D023D303281BD016D31FE0C6
:10331000326891071CD500F057F8306820F08050D3
:1033200000F05CF880463068810026D5FEF7F6F99B
:10333000A0EB08000328F6D3032529E031684A05ED
:10334000E9D405E031688A03E5D431684A03E2D460
:1033500001251DE03B6900F02EF87161306840F0F6
:10336000805000F03BF80446306881000CD4FEF732
:10337000D5F9001B0328F7D3DEE7B9687269002C82
:10338000E8D100F008F8E8E77169786901437161F4
:103390002846BDE8F0811B48FB68024042EA012153
:1033A0001B0941EA43417047F0687968C0F3021095
:1033B000401C88427047144802405B0842EA0121E1
:1033C0005B1E41EA43617047F268796822F073023C
:1033D0001043491E40EA0110F06070473060FEF76C
:1033E0009DB90746054E38680C46F168002511F076
:1033F000030F704700700040901002400010024020
:10340000FF809FFFFF80FDFFFF80FFF938B500F1CF
:10341000240100244A78022A03D004208861012470
:1034200017E00268136823F00E0313600268156842
:103430006D086D001560012291F82030CD6903F010
:103440001C039A406A6001224A700C70496901B1FC
:103450008847204632BD704770477047D3BBD9B10B
:10346000B2F5803F5BD2022A1ED98C46B1FBF2F145
:1034700002FB11C31B0443EA1043B3FBF2FC02FB43
:103480001C3380B240EA0343B3FBF2F002FB10327C
:1034900040EA0C4000237047022A05D98446B0FB5D
:1034A000F2F002FB10C270474AB105D100F00102F0
:1034B00049085FEA3000704700220023704700F09F
:1034C00051B80B000200002100207047F7D3002202
:1034D00000237047904271EB030CF2D370B5B1FA40
:1034E00081F4B3FA83F52C1BA340C4F1200532FA12
:1034F00005F63343A2405FF00046E64002E05B0879
:103500005FEA3202841A71EB030524BF2046294684
:103510007641F4D302000B003000002170BD70B57D
:10352000B1FA81F4B2FA82F5C4F120046419B4F15D
:103530002006DAD3B2405FF00044F440002502E0F8
:1035400052085FEA3303C61A71EB020E24BF3046FD
:10355000714664416D41F3D302000B002000290045
:1035600070BD000070470000000000000000000077
:10357000000000000000000000000000000000004B
:10358000000000000000000000000000000000003B
:10359000000000000000000000000000000000002B
:1035A000000000000000000000000000000000001B
:1035B000000000000000000000000000000000000B
:1035C00000000000000000000000000000000000FB
:1035D00000000000000000000000000000000000EB
:1035E00000000000000000000000000000000000DB
:1035F00000000000000000000000000000000000CB
:1036000000000000000000000000000000000000BA
:1036100000000000000000000000000000000000AA
:10362000000000000000000000000000000000009A
:10363000000000000E48016841F4700101600022A2
:103640000C49086840F0010008608A604FF480521D
:103650000B68094803400B60CA6000200B68074AEA
:1036600023F480230B6088614FF000611160704784
:1036700088ED00E000100240FFFFF6EA08ED00E0F0
:103680000000000000000000010203040607080912
:103690007047FEE7FEE7FEE7FEE7704770477047BA
:1036A00000F018B880B50748FCF79AFDBDE8024065
:1036B0000548FCF795BD0548FEF724BF0448FEF712
:1036C00021BF0000B403002074030020200200206A
:1036D0003001002002480168491C0160704700BFAA
:1036E000F4030020A0860100400D0300801A0600AC
:1036F00000350C0040420F0080841E0000093D0090
:1037000000127A000024F40000366E010048E8013F
:10371000006CDC0230B450F8041B79B102684368D5
:1037200002440830DC0744BFA9F10104E31852F851
:10373000045B43F8045B091FF9D1ECE730BC704728
:1037400010B5074979441831064C7C44163404E01E
:103750000A68081D114488470146A142F8D110BDEE
:103760002C0000004C0000004EF68851CEF2000103
:10377000086840F470000860BFF34F8FBFF36F8F8D
:103780004FF00070E1EE100A704700002BD8FFFFE9
:10379000F4030000040000200000000079FFFFFF98
:1037A00004000000B0010000000000200000000044
:1037B00000F00DF8002801D0FFF7C2FFAFF3008042
:1037C0000020AFF30080FDF7F3FF00F002F80120C6
:1037D000704700F001B800000746384600F002F8D4
:1037E000FBE7000080B5AFF30080024A110018200B
:1037F000ABBEFBE7260002000148804701480047B6
:103800003536000809380008AFF30080FFF7ACFF39
:10381000FFF7CEFF0000000001020304FFF7FEBF28
:10382000FFF7FEBFFFF7FEBFFFF7FEBFFFF7FEBFCC
:10383000FFF7FEBFFFF7FEBFFFF7FEBFFFF7FEBFBC
:10384000FFF7FEBFFFF7FEBFFFF7FEBFFFF7FEBFAC
:10385000FFF7FEBFFFF7FEBFFFF7FEBFFFF7FEBF9C
:10386000FFF7FEBFFFF7FEBFFFF7FEBFFFF7FEBF8C
:10387000FFF7FEBFFFF7FEBFFFF7FEBFFFF7FEBF7C
:10388000FFF7FEBFFFF7FEBFFFF7FEBFFFF7FEBF6C
:10389000FFF7FEBFFFF7FEBFFFF7FEBFFFF7FEBF5C
:1038A000FFF7FEBFFFF7FEBFFFF7FEBFFFF7FEBF4C
:1038B000FFF7FEBFFFF7FEBFFFF7FEBFFFF7FEBF3C
:1038C000FFF7FEBFFFF7FEBFFFF7FEBFFFF7FEBF2C
:1038D000FFF7FEBFFFF7FEBFFFF7FEBFFFF7FEBF1C
:1038E000FFF7FEBFFFF7FEBFFFF7FEBFFFF7FEBF0C
:1038F000FFF7FEBFFFF7FEBFFFF7FEBFFFF7FEBFFC
:10390000FFF7FEBFFFF7FEBFFFF7FEBFFFF7FEBFEB
:10391000FFF7FEBFFFF7FEBFFFF7FEBFFFF7FEBFDB
:10392000FFF7FEBFFFF7FEBFFFF7FEBFFFF7FEBFCB
:10393000FFF7FEBFFFF7FEBFFFF7FEBFFFF7FEBFBB
:10394000FFF7FEBFFFF7FEBFFFF7FEBFFFF7FEBFAB
:08395000FFF7FEBF00093D0076
:0400000508003809AE
:00000001FF
